:100000000C9454000C9471000C9471000C947100C9
:100010000C9471000C9471000C9471000C9471009C
:100020000C9471000C9471000C9471000C9471008C
:100030000C9471000C9471000C9471000C9471007C
:100040000C9471000C9471000C94A2030C94D003D6
:100050000C9471000C9471000C9471000C9471005C
:100060000C9471000C947100427566666572206F85
:10007000766572666C6F77206572726F723A2000D7
:1000800055415254204F76657272756E20457272DA
:100090006F723A200055415254204672616D6520BE
:1000A0004572726F723A200011241FBECFEFD8E064
:1000B000DEBFCDBF11E0A0E0B1E0E2EEFDE002C0A6
:1000C00005900D92A23EB107D9F722E0A2EEB1E071
:1000D00001C01D92A732B207E1F70E9406020C94FC
:1000E000EF060C940000EF92FF920F931F93CF93B3
:1000F000DF9300D000D000D0CDB7DEB7AC01FB015C
:1001000090E00AE010E021E0290FEE24E394F12CC6
:10011000EC0EFD1EE90EF11C97FDFA94CA01B80120
:100120000E949A06805DD7018C93AB01922F672BBA
:1001300051F7BF01822F18166CF4815041E050E056
:100140004C0F5D1F480F511DDA019C91DB019D93FF
:10015000BD01F1CF822F27FD80E0E80FF11D87FD63
:10016000FA95108226960FB6F894DEBF0FBECDBF6B
:10017000DF91CF911F910F91FF90EF900895ECE7E1
:10018000F0E080818064808380818F778083EAE7DC
:10019000F0E0808187688083089580917A00806490
:1001A00080937A0080917A0086FDFCCF8091780060
:1001B0009091790008952F923F924F925F927F9293
:1001C0008F929F92AF92BF92CF92DF92EF92FF9267
:1001D0000F931F93CF93DF934B015C018A0120E0C3
:1001E00030E0A9010E94CE0487FD18C0C501B4010A
:1001F0000E9445056B017C010E947D059B01AC01BD
:10020000C501B4010E94610420E030E048EC52E4F2
:100210000E942D060E944505712C1CC0B7FAB094AF
:10022000B7F8B094C501B4010E9445056B017C018B
:100230000E947D059B01AC01C501B4010E946104CF
:1002400020E030E04AE754E40E942D060E94450574
:1002500077247394D0E02AE0222E312C412C512CAB
:10026000161617061806190674F45801AD0EB11CBF
:10027000A20191010E94AE06605DF5016083B901A3
:10028000CA01DF5FEDCFD11104C080E3F8018083A4
:10029000D1E0C1E0CD0FF801ED0FF11D8EE28083BA
:1002A000D0E05801AC0EB11C8AE0282E312C412C34
:1002B000512C1C141D041E041F0484F445018D0ED2
:1002C000911CC701B601A20191010E94AE06605DBA
:1002D000F401608369017A01DF5FEBCFD11106C0C1
:1002E00080E3F801EC0FF11D8083D1E08D2F8C0F9E
:1002F000772031F0F801E80FF11D9DE290838F5FC8
:10030000F801E80FF11D10828150982F282F291B2A
:10031000291760F4D801A20FB11D2C91F801E90F43
:10032000F11D30813C9391502083F0CFDF91CF912C
:100330001F910F91FF90EF90DF90CF90BF90AF9003
:100340009F908F907F905F904F903F902F90089557
:10035000CF92DF92EF92FF920F931F93CF93DF9391
:100360008C01EA01072E000C880B990B0E947D0579
:1003700020E030E040E251E40E94D3046B017C01B4
:10038000B801110F880B990B0E947D059B01AC01F0
:10039000C701B6010E9462046B017C01BE01DD0F42
:1003A000880B990B0E947D0520E030E048EC52E478
:1003B0000E94D3049B01AC01C701B6010E946204F4
:1003C000DF91CF911F910F91FF90EF90DF90CF9031
:1003D0000895CF93DF930E941304EC0190FD12C0A7
:1003E00094FF04C085E990E00E945204D3FF04C04A
:1003F00080E890E00E945204D1FF04C088E690E0BB
:100400000E945204CE01DF91CF910895CF93DF93E4
:10041000CDB7DEB7C455D1090FB6F894DEBF0FBE15
:10042000CDBF80E4E0E0F1E0DE01119601900D9295
:100430008A95E1F787E690E00E94FA0378940E949B
:10044000BF000E94610380E491E00E94460485E5BC
:1004500091E00E9446047E0121E4E20EF11C0E941C
:10046000E9018C0190FDFBCF8734910549F50E948D
:10047000CD00BC0180E090E00E947B0520E030E0F0
:1004800040E85AE30E942D0620E030E040EA50E4C4
:100490000E942D06A7010E94DB008CE691E00E94DD
:1004A0004604C7010E9446048FE691E00E9446047C
:1004B00010FDD5CF0E94E9018C010E943104F8CFD4
:1004C0008735910509F594E6C92ED12C8E010F5F71
:1004D0001F4F88E50E94670380E00E949103F801A6
:1004E00081918F010E9491030E94890387E893E123
:1004F0000197F1F700C000000E151F0551F791E0BC
:10050000C91AD10819F7ABCF84359105C1F4EFE3CF
:10051000FCE93197F1F700C000000E94E90190FF6B
:1005200005C083E791E00E94460406C0833691052A
:1005300019F48DE791E0C2C087E891E0BFC0833530
:10054000910509F08CCF8FE39CE90197F1F700C08A
:1005500000000E94E9018C9721F081E991E00E945E
:100560004604EFE3FCE93197F1F700C000000E9478
:10057000E9018033910529F0C19731F081E991E0DB
:100580009DC0612C712C03C066246394712C8FE391
:100590009CE90197F1F700C000000E94E9018C97E7
:1005A00069F7EFE3FCE93197F1F700C000000E9422
:1005B000E901C0974C010A9708F78FE39CE901977E
:1005C000F1F700C000000E94E9018E97B9F6EFE351
:1005D000FCE93197F1F700C000000E94E901C097E3
:1005E0005C010A9758F68FE39CE90197F1F700C088
:1005F00000000E94E9016C01E0E3CE1AD108FAE0A4
:10060000CF16D10408F0BACF90FD09C08FE39CE962
:100610000197F1F700C000000E94E901F5CFA601A3
:10062000B501C4010E94A80120E030E040EA50E496
:100630000E94D30420E030E04FE753E40E942D06EF
:100640000E944C05162F88E56114710421F40E9464
:10065000670380E003C00E94670381E00E9491036A
:10066000812F0E9491030E94890383EC91E00E94F4
:10067000460480E3860D0E94310480ED91E00E94E3
:10068000460480E3880D0E9431048EE20E9431040A
:1006900080E38A0D0E94310480E38C0D0E943104B6
:1006A00089ED91E00E944604B701812F90E00E94FD
:1006B0007300C7010E9446048EED91E00E9446043B
:1006C000CECE1092B90088E48093B800089594EAE1
:1006D0009093BC009091BC0097FFFCCF9091B90023
:1006E000987F983021F0903111F081E00895809347
:1006F000BB0084E88093BC008091BC0087FFFCCFE6
:100700008091B900887F883111F0803471F780E0E2
:10071000089584E98093BC008091BC0084FDFCCFE7
:1007200008958093BB0084E88093BC008091BC0056
:1007300087FFFCCF9091B900987F81E0983209F44F
:1007400080E008951F920F920FB60F9211242F93FD
:100750008F939F93EF93FF938091C0009091C60079
:100760008C71E091E401EF5FEF712091E301E217FA
:1007700039F0E093E401F0E0E951FE4F908301C0CD
:1007800082E09091E201892B8093E201FF91EF9149
:100790009F918F912F910F900FBE0F901F901895E2
:1007A0001F920F920FB60F9211248F939F93EF9386
:1007B000FF939091E6018091E501981769F0E0912F
:1007C000E501EF5FEF71E093E501F0E0E95FFD4FD8
:1007D00080818093C60005C08091C1008F7D809389
:1007E000C100FF91EF919F918F910F900FBE0F90DD
:1007F0001F9018951092E6011092E5011092E40105
:100800001092E30197FF03C022E02093C00090788C
:100810009093C5008093C40088E98093C10086E06E
:100820008093C20008959091E4018091E3019817AC
:10083000A9F09091E3019F5F9F71E92FF0E0E951EA
:10084000FE4F20818091E2019093E3011092E2013A
:1008500090E0982F8827820F911D089580E091E005
:1008600008959091E6019F5F9F712091E501921795
:10087000E1F3E92FF0E0E95FFD4F80839093E6011B
:100880008091C10080628093C1000895CF93DF936F
:10089000EC018991882319F00E943104FACFDF918D
:1008A000CF910895CF93DF93FC018491EF012196BE
:1008B000882321F00E943104FE01F7CFDF91CF9110
:1008C00008955058BB27AA270E9479040C94F30579
:1008D0000E94E50538F00E94EC0520F039F49F3FB6
:1008E00019F426F40C94E2050EF4E095E7FB0C9461
:1008F000DC05E92F0E94040658F3BA176207730754
:100900008407950720F079F4A6F50C9426060EF4DA
:10091000E0950B2EBA2FA02D0B01B90190010C010F
:10092000CA01A0011124FF27591B99F0593F50F427
:10093000503E68F11A16F040A22F232F342F44277F
:10094000585FF3CF469537952795A795F040539577
:10095000C9F77EF41F16BA0B620B730B840BBAF047
:100960009150A1F0FF0FBB1F661F771F881FC2F7B2
:100970000EC0BA0F621F731F841F48F487957795C6
:100980006795B795F7959E3F08F0B0CF9395880F80
:1009900008F09927EE0F9795879508950E94B8055E
:1009A00008F481E008950E94E7040C94F3050E9486
:1009B000EC0558F00E94E50540F029F45F3F29F06E
:1009C0000C94DC0551110C9427060C94E2050E944E
:1009D000040668F39923B1F3552391F3951B550B46
:1009E000BB27AA2762177307840738F09F5F5F4F02
:1009F000220F331F441FAA1FA9F335D00E2E3AF041
:100A0000E0E832D091505040E695001CCAF72BD058
:100A1000FE2F29D0660F771F881FBB1F26173707A9
:100A20004807AB07B0E809F0BB0B802DBF01FF27DB
:100A300093585F4F3AF09E3F510578F00C94DC05D7
:100A40000C9427065F3FE4F3983ED4F386957795A0
:100A50006795B795F7959F5FC9F7880F911D969594
:100A6000879597F90895E1E0660F771F881FBB1FF0
:100A7000621773078407BA0720F0621B730B840B9D
:100A8000BA0BEE1F88F7E09508950E944C05689414
:100A9000B1110C94270608950E940C0688F09F5708
:100AA00098F0B92F9927B751B0F0E1F0660F771F92
:100AB000881F991F1AF0BA95C9F714C0B13091F088
:100AC0000E942606B1E008950C942606672F782F21
:100AD0008827B85F39F0B93FCCF38695779567954D
:100AE000B395D9F73EF490958095709561957F4FB9
:100AF0008F4F9F4F0895E89409C097FB3EF490955F
:100B00008095709561957F4F8F4F9F4F9923A9F0E6
:100B1000F92F96E9BB279395F69587957795679575
:100B2000B795F111F8CFFAF4BB0F11F460FF1BC0B9
:100B30006F5F7F4F8F4F9F4F16C0882311F096E94C
:100B400011C0772321F09EE8872F762F05C06623FA
:100B500071F096E8862F70E060E02AF09A95660FB3
:100B6000771F881FDAF7880F9695879597F908956C
:100B7000990F0008550FAA0BE0E8FEEF16161706AE
:100B8000E807F907C0F012161306E407F50798F016
:100B9000621B730B840B950B39F40A2661F0232B2F
:100BA000242B252B21F408950A2609F4A140A695AB
:100BB0008FEF811D811D089597F99F6780E870E090
:100BC00060E008959FEF80EC089500240A941616C3
:100BD000170618060906089500240A94121613062B
:100BE000140605060895092E0394000C11F48823B9
:100BF00052F0BB0F40F4BF2B11F460FF04C06F5FD5
:100C00007F4F8F4F9F4F089557FD9058440F551FAA
:100C100059F05F3F71F04795880F97FB991F61F07E
:100C20009F3F79F087950895121613061406551FF5
:100C3000F2CF4695F1DF08C0161617061806991F61
:100C4000F1CF86957105610508940895E894BB2756
:100C500066277727CB0197F908950E9440060C94E8
:100C6000F3050E94E50538F00E94EC0520F095237D
:100C700011F00C94DC050C94E20511240C94270669
:100C80000E94040670F3959FC1F3950F50E0551F25
:100C9000629FF001729FBB27F00DB11D639FAA27D1
:100CA000F00DB11DAA1F649F6627B00DA11D661F20
:100CB000829F2227B00DA11D621F739FB00DA11D41
:100CC000621F839FA00D611D221F749F3327A00DFB
:100CD000611D231F849F600D211D822F762F6A2F97
:100CE00011249F5750409AF0F1F088234AF0EE0FFC
:100CF000FF1FBB1F661F771F881F91505040A9F729
:100D00009E3F510580F00C94DC050C9427065F3F54
:100D1000E4F3983ED4F3869577956795B795F79564
:100D2000E7959F5FC1F7FE2B880F911D96958795DC
:100D300097F90895AA1BBB1B51E107C0AA1FBB1F4F
:100D4000A617B70710F0A61BB70B881F991F5A9557
:100D5000A9F780959095BC01CD010895052E97FBCC
:100D60001EF400940E94C50657FD07D00E94CD06D0
:100D700007FC03D04EF40C94C50650954095309571
:100D800021953F4F4F4F5F4F0895909580957095F7
:100D900061957F4F8F4F9F4F0895A1E21A2EAA1B96
:100DA000BB1BFD010DC0AA1FBB1FEE1FFF1FA2171B
:100DB000B307E407F50720F0A21BB30BE40BF50B18
:100DC000661F771F881F991F1A9469F760957095A1
:100DD000809590959B01AC01BD01CF010895F894D9
:020DE000FFCF43
:100DE200808D99A5B1BCC7D1DBE3EAF1F6FAFEFF2B
:100DF200FFFFFEFAF6F1EAE3DBD1C7BCB1A5998D9C
:100E02008073675B4F44392F251D160F0A060201B6
:100E1200000102060A0F161D252F39444F5B677326
:100E220057656C636F6D6520746F2070726F6772A7
:100E3200616D2E0A00506C6561736520656E746584
:100E42007220636F6D6D616E643A0A00763D002018
:100E5200560A004E6F2064617461210A0053756363
:100E620063657373210A004661696C7572652E0AA7
:100E7200004572726F722E20436F6D6D616E642039
:100E82006E6F74207265636F676E697A65642E2077
:100E9200506C656173652074727920616761696E57
:100EA2002E0A00444143206368616E6E656C200027
:100EB2002073657420746F20002056202800642956
:020EC2000A0024
:00000001FF
