S00C00004C6162352E73726563D4
S11300000C9454000C9471000C9471000C947100C5
S11300100C9471000C9471000C9471000C94710098
S11300200C9471000C9471000C9471000C94710088
S11300300C9471000C9471000C9471000C94710078
S11300400C9471000C9471000C94C4000C94F20094
S11300500C9471000C9471000C9471000C94710058
S11300600C9471000C947100427566666572206F81
S1130070766572666C6F77206572726F723A2000D3
S113008055415254204F76657272756E20457272D6
S11300906F723A200055415254204672616D6520BA
S11300A04572726F723A200011241FBECFEFD8E060
S11300B0DEBFCDBF11E0A0E0B1E0EAE0F3E002C0B2
S11300C005900D92A836B107D9F721E0A8E6B1E072
S11300D001C01D92AD3AB207E1F70E94A2000C9450
S11300E083010C940000ECE7F0E08081806480835D
S11300F080818F778083EAE7F0E08081876880835E
S11301000895CF93DF9387E690E00E941C010E943C
S11301103501EC0190FD12C094FF04C085E990E024
S11301200E947401D3FF04C080E890E00E9474012F
S1130130D1FF04C088E690E00E947401CE01DF91F3
S1130140CF91089587E690E00E941C0178940E9464
S113015073000E94BE0080E091E00E94680185E186
S113016091E00E9468018CE291E00E9468010E9483
S11301708100892BC1F785E391E0F3CF1092B90098
S113018088E48093B80008951F920F920FB60F92DF
S113019011242F938F939F93EF93FF938091C0002B
S11301A09091C6008C71E0916A01EF5FEF7120912C
S11301B06901E21739F0E0936A01F0E0E359FE4F78
S11301C0908301C082E090916801892B809368013B
S11301D0FF91EF919F918F912F910F900FBE0F90F0
S11301E01F9018951F920F920FB60F9211248F93A0
S11301F09F93EF93FF9390916C0180916B019817FB
S113020069F0E0916B01EF5FEF71E0936B01F0E057
S1130210E357FE4F80818093C60005C08091C100E2
S11302208F7D8093C100FF91EF919F918F910F90EB
S11302300FBE0F901F90189510926C0110926B01D5
S113024010926A011092690197FF03C022E0209383
S1130250C00090789093C5008093C40088E980938F
S1130260C10086E08093C200089590916A01809154
S113027069019817A9F0909169019F5F9F71E92F17
S1130280F0E0E359FE4F2081809168019093690169
S11302901092680190E0982F8827820F911D08958D
S11302A080E091E0089590916C019F5F9F7120918F
S11302B06B019217E1F3E92FF0E0E357FE4F8083DF
S11302C090936C018091C10080628093C100089575
S11302D0CF93DF93EC018991882319F00E94530195
S11302E0FACFDF91CF910895CF93DF93FC018491EE
S11302F0EF012196882321F00E945301FE01F7CFDC
S10D0300DF91CF910895F894FFCF28
S113030A57656C636F6D6520746F2070726F6772C6
S113031A616D2E0A00506C6561736520656E7465A3
S113032A7220636F6D6D616E643A0A00546573746A
S113033A696E670A004572726F722E20436F6D6D83
S113034A616E64206E6F74207265636F676E697A7A
S113035A65642E20506C656173652074727920611E
S10B036A6761696E2E0A0000B0
S9030000FC
