:100000000C9454000C9471000C9471000C947100C9
:100010000C9471000C9471000C9471000C9471009C
:100020000C9471000C9471000C9471000C9471008C
:100030000C9471000C9471000C9471000C9471007C
:100040000C9471000C9471000C9426010C945401D2
:100050000C9471000C9471000C9471000C9471005C
:100060000C9471000C947100427566666572206F85
:10007000766572666C6F77206572726F723A2000D7
:1000800055415254204F76657272756E20457272DA
:100090006F723A200055415254204672616D6520BE
:1000A0004572726F723A200011241FBECFEFD8E064
:1000B000DEBFCDBF11E0A0E0B1E0E6EFF3E002C0AB
:1000C00005900D92AC32B107D9F721E0ACE2B1E076
:1000D00001C01D92A137B207E1F70E94DB000C942A
:1000E000F9010C940000EF92FF920F931F93CF93AE
:1000F000DF9300D000D000D0CDB7DEB7AC01FB015C
:1001000090E00AE010E021E0290FEE24E394F12CC6
:10011000EC0EFD1EE90EF11C97FDFA94CA01B80120
:100120000E94E501805DD7018C93AB01922F672B74
:1001300051F7BF01822F18166CF4815041E050E056
:100140004C0F5D1F480F511DDA019C91DB019D93FF
:10015000BD01F1CF822F27FD80E0E80FF11D87FD63
:10016000FA95108226960FB6F894DEBF0FBECDBF6B
:10017000DF91CF911F910F91FF90EF900895ECE7E1
:10018000F0E080818064808380818F778083EAE7DC
:10019000F0E0808187688083089580917A00806490
:1001A00080937A0080917A0086FDFCCF8091780060
:1001B000909179000895CF93DF93CDB7DEB727975D
:1001C0000FB6F894DEBF0FBECDBF87E690E00E9469
:1001D0007E0178940E94BF0080E091E00E94CA01F5
:1001E00085E191E00E94CA010E9497018C010E9462
:1001F000CD00BE016F5F7F4F0E947300CE0101965C
:100200000E94CA018AE00E94B50110FD15C014FFCA
:1002100004C085E990E00E94D60113FF04C080E885
:1002200090E00E94D60111FF04C088E690E00E9491
:10023000D601802F0E94B5012FEF83ED90E321506E
:1002400080409040E1F700C00000CECF1F920F9297
:100250000FB60F9211242F938F939F93EF93FF93D9
:100260008091C0009091C6008C71E0912E01EF5FEB
:10027000EF7120912D01E21739F0E0932E01F0E0AB
:10028000EF5CFE4F908301C082E090912C01892B9E
:1002900080932C01FF91EF919F918F912F910F905F
:1002A0000FBE0F901F9018951F920F920FB60F92CE
:1002B00011248F939F93EF93FF939091300180913E
:1002C0002F01981769F0E0912F01EF5FEF71E09334
:1002D0002F01F0E0EF5AFE4F80818093C60005C0E9
:1002E0008091C1008F7D8093C100FF91EF919F911C
:1002F0008F910F900FBE0F901F90189510923001A4
:1003000010922F0110922E0110922D0197FF03C021
:1003100022E02093C00090789093C5008093C400A1
:1003200088E98093C10086E08093C200089590918F
:100330002E0180912D019817A9F090912D019F5FBA
:100340009F71E92FF0E0EF5CFE4F208180912C013E
:1003500090932D0110922C0190E0982F8827820F06
:10036000911D089580E091E00895909130019F5F84
:100370009F7120912F019217E1F3E92FF0E0EF5ADE
:10038000FE4F8083909330018091C1008062809302
:10039000C1000895CF93DF93EC018991882319F070
:1003A0000E94B501FACFDF91CF910895CF93DF93EB
:1003B000FC018491EF012196882321F00E94B50170
:1003C000FE01F7CFDF91CF910895AA1BBB1B51E12E
:1003D00007C0AA1FBB1FA617B70710F0A61BB70BB5
:1003E000881F991F5A95A9F780959095BC01CD015A
:0603F0000895F894FFCF10
:1003F60057656C636F6D6520746F2070726F6772DE
:10040600616D2E0A00506C6561736520656E7465BA
:0C0416007220636F6D6D616E643A0A0025
:00000001FF
